:1078000018C0000077FA8005950F090212000101E7
:107810000080320904000000000000001201100185
:10782000FF000008D0165307030200000001040304
:10783000090411241FBECFEFD8E0CDBFDEBF21E089
:10784000A0E0B1E001C01D92AC32B207E1F766C121
:10785000A82FB92F80E090E041E050EA609530E039
:1078600009C02D9182279795879510F08427952739
:10787000305EC8F36F5FA8F30895EADF8D939D93A0
:107880000895CF93CFB7CF93DF93C395319BE9F79B
:10789000319B0BC0319B09C0319B07C0319B05C098
:1078A000319B03C0319B01C08FC06F93C0910E010B
:1078B000DD27CA5EDE4F2F9365E5319B03C02F9114
:1078C0006F91E6CF0F931F934F9320E040E15F93BA
:1078D00006B1067001FB27F93F9350E03BE039C049
:1078E000167040642F77012F5F5F1EC0406816B18D
:1078F00016702F7752501FC0406406B12F77067064
:10790000D1F15F5F00C023C0406216B12F771670BF
:1079100091F15F5F00C025C006701027515012F42E
:107920005D5F0000115027952C3F16B1C8F6167008
:107930000127015027952C3FC8F64227499306B1ED
:10794000067010274F73115027952C3FA8F64695C7
:10795000469516B1167079F00127015027952C3FF6
:1079600098F66B5A60F3315006B1B0F600C012E0E1
:107970001BBB00271DC03B503195C31BD04012E0FC
:107980001BBB0881033C29F10B3419F120910C0138
:107990001981110F1213EDCF093651F10D3211F08B
:1079A000013E39F7CAE01BB311FD02C0CA95D9F7F1
:1079B000009314013F915F914F911F910F912F916F
:1079C0006F91CBB3C1FD61CFDF91CF91CFBFCF918D
:1079D000089520911401222369F3109112011123BB
:1079E00009F534300AF13093120120930D011CC0C7
:1079F000009112010130B4F40AE530910F0134FD19
:107A000014C000930F01C1E0D1E013C0052710E0BE
:107A100000C0000008B91AC0052710E0221F1DC0D1
:107A200010E021C04AE502C032ED432FC4E1D0E0AE
:107A300032E017B11660419A08B117B956E020E854
:107A400065E320FF052708B9279517951C3FF0F639
:107A50006695B8F7B1F720FF052708B92795179560
:107A60001C3FD0F62795179517FF052700001C3FF0
:107A700008B9B0F629913A9519F7097F10911301C9
:107A8000110FC651D04008B911F010930C0112E04B
:107A90001BBB026017B1197F402F497F54E05A95F4
:107AA000F1F708B917B948B985CFF201309731F02D
:107AB000E230F10529F480E09CE302C08CE094E917
:107AC00021E00C0120935700E8951124CF01029684
:107AD0002C010895A89514BEE0E6F0E0808188614D
:107AE00080831082399A2FEF85EA9EE021508040F2
:107AF0009040E1F700C0000039988AE580930F01BB
:107B00008FEF80930001ECE6F0E080818460808359
:107B1000E8E6F0E08081826080830895DBDF519A9F
:107B2000712C312C412C512C85ED94E124E636B199
:107B3000367009F024E6215021F4109213011092BE
:107B40000C01D99B05C0EC019CDE82E08BBB04C01C
:107B5000019769F7C0E0D0E0A89522E032120FC08B
:107B6000E0E0F8E7E058F10983E080935700E895FA
:107B700007B600FCFDCF3097A9F7412C512C832D7F
:107B8000803471F4F2013297E11588E7F80768F460
:107B900085E080935700E89507B600FCFDCF05C04F
:107BA000843019F4CD2B11F4F0C0312C80911201E6
:107BB000835087FD9AC090910D019D3209F093C0CA
:107BC000883009F090C083EC809301018AE58093AE
:107BD0000F0180911701807690911801882381F11F
:107BE000712C911108C084E098E790931101809363
:107BF000100186E06DC0913069F441145104F1F038
:107C000080911B018078482E50901C0181E187BF34
:107C1000E89514C0933081F48091190190911A0174
:107C200044DF80911B0190911C013FDF842D8F77F1
:107C300029F490E4392E4CC09F73392E80E048C05F
:107C40008091190110920A01911106C010920B0146
:107C50002AE031E082E038C0953019F480931301B6
:107C600025C09630E9F490911A01913019F48CE115
:107C700098E704C0923041F48AE098E790931101AC
:107C80008093100182E124C09330C1F68111D6CFD8
:107C90008EE298E7909311018093100184E018C060
:107CA000983079F0993031F4809315012AE031E071
:107CB00080E00AC081E09A3009F080E02AE031E0FB
:107CC00003C025E131E081E03093110120931001E0
:107CD00090911E01911105C090911D01981708F413
:107CE000892F809300011092120180910F0184FF6F
:107CF00031C0809100018F3F69F1C82F893008F0B1
:107D0000C8E08C1B809300019091010188E88927CD
:107D100080930101CC2391F080911001A2E0B1E0A9
:107D2000E82FF091110194919D9331969C2F980F1B
:107D30009E13F9CFF0931101E09310016C2F82E0B4
:107D400091E09BDDCC5FCC3019F08FEF8093000188
:107D5000C0930F01C30101963C018039914029F481
:107D6000EDEFF7E7E491EF3F81F4862D8C7411F08D
:107D7000599801C0599AD99BD7CE8CE1319B8CE19F
:107D80008150E1F782E08BBBCFCE51985998A2DEAB
:107D90001092680010926C0081E180935700E89582
:047DA0002DCDFFCF17
:040000030000780081
:00000001FF
